{"abi":[{"type":"constructor","inputs":[{"name":"_tokenGateway","type":"address","internalType":"address"},{"name":"_feeToken","type":"address","internalType":"address"}],"stateMutability":"nonpayable"},{"type":"function","name":"bridgeTokens","inputs":[{"name":"token","type":"address","internalType":"address"},{"name":"symbol","type":"string","internalType":"string"},{"name":"amount","type":"uint256","internalType":"uint256"},{"name":"recipient","type":"address","internalType":"address"},{"name":"destChain","type":"bytes","internalType":"bytes"}],"outputs":[],"stateMutability":"payable"},{"type":"function","name":"feeToken","inputs":[],"outputs":[{"name":"","type":"address","internalType":"address"}],"stateMutability":"view"},{"type":"function","name":"tokenGateway","inputs":[],"outputs":[{"name":"","type":"address","internalType":"contract ITokenGateway"}],"stateMutability":"view"},{"type":"error","name":"SafeERC20FailedOperation","inputs":[{"name":"token","type":"address","internalType":"address"}]}],"bytecode":{"object":"0x60c060405234801561000f575f5ffd5b50604051610c6e380380610c6e833981810160405281019061003191906100fe565b8173ffffffffffffffffffffffffffffffffffffffff1660808173ffffffffffffffffffffffffffffffffffffffff16815250508073ffffffffffffffffffffffffffffffffffffffff1660a08173ffffffffffffffffffffffffffffffffffffffff1681525050505061013c565b5f5ffd5b5f73ffffffffffffffffffffffffffffffffffffffff82169050919050565b5f6100cd826100a4565b9050919050565b6100dd816100c3565b81146100e7575f5ffd5b50565b5f815190506100f8816100d4565b92915050565b5f5f60408385031215610114576101136100a0565b5b5f610121858286016100ea565b9250506020610132858286016100ea565b9150509250929050565b60805160a051610af66101785f395f818161016601526102d701525f818160d9015281816101240152818161024701526102fb0152610af65ff3fe608060405260043610610033575f3560e01c80631d4ae23f14610037578063647846a514610053578063aa0d6e8e1461007d575b5f5ffd5b610051600480360381019061004c919061076f565b6100a7565b005b34801561005e575f5ffd5b506100676102d5565b604051610074919061082d565b60405180910390f35b348015610088575f5ffd5b506100916102f9565b60405161009e91906108a1565b60405180910390f35b6100d43330858873ffffffffffffffffffffffffffffffffffffffff1661031d909392919063ffffffff16565b61011f7f0000000000000000000000000000000000000000000000000000000000000000848773ffffffffffffffffffffffffffffffffffffffff166103729092919063ffffffff16565b6101aa7f00000000000000000000000000000000000000000000000000000000000000007fffffffffffffffffffffffffffffffffffffffffffffffffffffffffffffffff7f000000000000000000000000000000000000000000000000000000000000000073ffffffffffffffffffffffffffffffffffffffff166103729092919063ffffffff16565b5f6040518061012001604052808581526020015f8152602001866040516020016101d4919061090c565b6040516020818303038152906040528051906020012081526020015f151581526020018473ffffffffffffffffffffffffffffffffffffffff165f1b81526020018381526020015f67ffffffffffffffff16815260200134815260200160405180602001604052805f81525081525090507f000000000000000000000000000000000000000000000000000000000000000073ffffffffffffffffffffffffffffffffffffffff166386f28b7534836040518363ffffffff1660e01b815260040161029f9190610aa0565b5f604051808303818588803b1580156102b6575f5ffd5b505af11580156102c8573d5f5f3e3d5ffd5b5050505050505050505050565b7f000000000000000000000000000000000000000000000000000000000000000081565b7f000000000000000000000000000000000000000000000000000000000000000081565b61032b848484846001610424565b61036c57836040517f5274afe7000000000000000000000000000000000000000000000000000000008152600401610363919061082d565b60405180910390fd5b50505050565b61037e8383835f610495565b61041f5761038f83835f6001610495565b6103d057826040517f5274afe70000000000000000000000000000000000000000000000000000000081526004016103c7919061082d565b60405180910390fd5b6103dd8383836001610495565b61041e57826040517f5274afe7000000000000000000000000000000000000000000000000000000008152600401610415919061082d565b60405180910390fd5b5b505050565b5f5f6323b872dd60e01b9050604051815f525f1960601c87166004525f1960601c86166024528460445260205f60645f5f8c5af1925060015f51148316610482578383151615610476573d5f823e3d81fd5b5f883b113d1516831692505b806040525f606052505095945050505050565b5f5f63095ea7b360e01b9050604051815f525f1960601c86166004528460245260205f60445f5f8b5af1925060015f511483166104e95783831516156104dd573d5f823e3d81fd5b5f873b113d1516831692505b806040525050949350505050565b5f604051905090565b5f5ffd5b5f5ffd5b5f73ffffffffffffffffffffffffffffffffffffffff82169050919050565b5f61053182610508565b9050919050565b61054181610527565b811461054b575f5ffd5b50565b5f8135905061055c81610538565b92915050565b5f5ffd5b5f5ffd5b5f601f19601f8301169050919050565b7f4e487b71000000000000000000000000000000000000000000000000000000005f52604160045260245ffd5b6105b08261056a565b810181811067ffffffffffffffff821117156105cf576105ce61057a565b5b80604052505050565b5f6105e16104f7565b90506105ed82826105a7565b919050565b5f67ffffffffffffffff82111561060c5761060b61057a565b5b6106158261056a565b9050602081019050919050565b828183375f83830152505050565b5f61064261063d846105f2565b6105d8565b90508281526020810184848401111561065e5761065d610566565b5b610669848285610622565b509392505050565b5f82601f83011261068557610684610562565b5b8135610695848260208601610630565b91505092915050565b5f819050919050565b6106b08161069e565b81146106ba575f5ffd5b50565b5f813590506106cb816106a7565b92915050565b5f67ffffffffffffffff8211156106eb576106ea61057a565b5b6106f48261056a565b9050602081019050919050565b5f61071361070e846106d1565b6105d8565b90508281526020810184848401111561072f5761072e610566565b5b61073a848285610622565b509392505050565b5f82601f83011261075657610755610562565b5b8135610766848260208601610701565b91505092915050565b5f5f5f5f5f60a0868803121561078857610787610500565b5b5f6107958882890161054e565b955050602086013567ffffffffffffffff8111156107b6576107b5610504565b5b6107c288828901610671565b94505060406107d3888289016106bd565b93505060606107e48882890161054e565b925050608086013567ffffffffffffffff81111561080557610804610504565b5b61081188828901610742565b9150509295509295909350565b61082781610527565b82525050565b5f6020820190506108405f83018461081e565b92915050565b5f819050919050565b5f61086961086461085f84610508565b610846565b610508565b9050919050565b5f61087a8261084f565b9050919050565b5f61088b82610870565b9050919050565b61089b81610881565b82525050565b5f6020820190506108b45f830184610892565b92915050565b5f81519050919050565b5f81905092915050565b8281835e5f83830152505050565b5f6108e6826108ba565b6108f081856108c4565b93506109008185602086016108ce565b80840191505092915050565b5f61091782846108dc565b915081905092915050565b61092b8161069e565b82525050565b5f819050919050565b61094381610931565b82525050565b5f8115159050919050565b61095d81610949565b82525050565b5f81519050919050565b5f82825260208201905092915050565b5f61098782610963565b610991818561096d565b93506109a18185602086016108ce565b6109aa8161056a565b840191505092915050565b5f67ffffffffffffffff82169050919050565b6109d1816109b5565b82525050565b5f61012083015f8301516109ed5f860182610922565b506020830151610a006020860182610922565b506040830151610a13604086018261093a565b506060830151610a266060860182610954565b506080830151610a39608086018261093a565b5060a083015184820360a0860152610a51828261097d565b91505060c0830151610a6660c08601826109c8565b5060e0830151610a7960e0860182610922565b50610100830151848203610100860152610a93828261097d565b9150508091505092915050565b5f6020820190508181035f830152610ab881846109d7565b90509291505056fea26469706673582212208ad3dbc75a481df3ccfc64c6a58543917a65b011a79cd46d9f5286d94c210d8364736f6c63430008210033","linkReferences":{}},"methodIdentifiers":{"bridgeTokens(address,string,uint256,address,bytes)":"1d4ae23f","feeToken()":"647846a5","tokenGateway()":"aa0d6e8e"},"id":14}